:020000040800F2
:10000000300400209D01000859060008A9020008DC
:1000100057060008E5010008B50C000800000000C4
:10002000000000000000000000000000950A000829
:10003000E701000800000000D5060008350B0008A5
:10004000B7010008B7010008B7010008B7010008B0
:10005000B7010008B7010008B7010008B7010008A0
:10006000B7010008B7010008B7010008B701000890
:10007000B7010008B7010008B7010008B701000880
:10008000B7010008B7010008B7010008B701000870
:10009000B7010008B7010008B7010008B701000860
:1000A000B7010008B7010008B7010008B701000850
:1000B000B7010008B7010008B7010008B701000840
:1000C000B7010008B7010008B7010008B701000830
:1000D000B7010008B7010008B7010008B701000820
:1000E000B7010008B7010008B7010008B701000810
:1000F000B7010008B7010008B7010008B701000800
:10010000000000000000000000000000B70100082F
:10011000B7010008B7010008B7010008B7010008DF
:10012000B7010008B7010008B7010008B7010008CF
:10013000B7010008B701000800000000000000003F
:10014000B7010008B7010008B7010008000000006F
:10015000000000000000000000000000000000009F
:100160000000000000000000B7010008B70100080F
:10017000B7010008000000000000000000000000BF
:1001800000000000B7010008DFF80CD000F018F8FC
:10019000004800477B0D00083004002006488047D7
:1001A00006480047FEE7FEE7FEE7FEE7FEE7FEE75C
:1001B000FEE7FEE7FEE7FEE7390B000889010008CD
:1001C000064C074D06E0E06840F0010394E80700A4
:1001D00098471034AC42F6D3FFF7DAFFC80D000899
:1001E000E80D0008FEE7704742F2283148434FF01F
:1001F000E021486100238B61012008610869C20782
:1002000001D0C003FAD50B618B617047F0B50022B5
:100210000127032607FA02F30C681C409C422BD1ED
:100220000D79012D01D0022D13D18468550006FAF5
:1002300005FC24EA0C0484604C79AC4085682C43AE
:10024000846084889C43848084888B7993401C4399
:1002500084800568530006FA03F4A54305600D7910
:10026000D0F800C09D4045EA0C050560C568A5436F
:10027000CC799C402C43C460521C102ACAD3F0BDD8
:1002800010B54B07DB0E9A40C90800EB8100016AEC
:100290000F249C40A1430162016A1143016210BD19
:1002A0000185704781617047FEE770B506460024FE
:1002B0004FF496350021084600F074F92C2000F028
:1002C00088F903E0304600F0AEF9641CAC42F9D383
:1002D00070BD00007CB50121480400F0FDF901214A
:1002E000880400F0F9F901248DF8044003208DF80A
:1002F0000500E0020090AA4D69462846FFF786FFF8
:10030000E103009169462846FFF780FF40200090F6
:100310004FF0904569462846FFF778FF00946946FC
:100320002846FFF773FF0821009169462846FFF72A
:100330006DFF0221009169462846FFF767FF022101
:100340002846FFF7AFFF0421009169462846FFF7D2
:100350005DFF0120FFF748FF02212846FFF7A0FFBD
:100360000A20FFF741FF02212846FFF79BFF782074
:10037000FFF73AFFCF2000F02CF9002000F03EF903
:10038000C92000F03BF9302000F038F9ED2000F0F2
:1003900020F9642000F032F9032000F02FF9122038
:1003A00000F02CF9812000F029F9E82000F011F983
:1003B000852000F023F9102000F020F97A2000F0C9
:1003C0001DF9CB2000F005F9392000F017F92C2099
:1003D00000F014F9002000F011F9342000F00EF9BB
:1003E000022000F00BF9F72000F0F3F8202000F0D5
:1003F00005F9EA2000F0EDF8002000F0FFF80020F9
:1004000000F0FCF8C02000F0E4F81B2000F0F6F843
:10041000C12000F0DEF8002000F0F0F8C52000F068
:10042000D8F8302000F0EAF8302000F0E7F8C720D4
:1004300000F0CFF8B72000F0E1F8362000F0C9F85E
:10044000082000F0DBF83A2000F0C3F8552000F057
:10045000D5F8B12000F0BDF8002000F0CFF81A2048
:1004600000F0CCF8B62000F0B4F80A2000F0C6F88E
:10047000A22000F0C3F8F22000F0ABF8002000F05A
:10048000BDF8262000F0A5F8012000F0B7F8E02024
:1004900000F09FF80F2000F0B1F82A2000F0AEF82D
:1004A000282000F0ABF8082000F0A8F80E2000F09B
:1004B000A5F8082000F0A2F8542000F09FF8A92029
:1004C00000F09CF8432000F099F80A2000F096F81C
:1004D0000F2000F093F8002000F090F8002000F0CA
:1004E0008DF8002000F08AF8002000F087F8E12065
:1004F00000F06FF8002000F081F8152000F07EF881
:10050000172000F07BF8072000F078F8112000F0A9
:1005100075F8062000F072F82B2000F06FF85620D6
:1005200000F06CF83C2000F069F8052000F066F857
:10053000102000F063F80F2000F060F83F2000F07A
:100540005DF83F2000F05AF80F2000F057F82B20FC
:1005500000F03FF8002000F051F8002000F04EF8C5
:10056000012000F04BF83F2000F048F82A2000F06E
:1005700030F8002000F042F8002000F03FF80020A2
:1005800000F03CF8EF2000F039F8112000F021F8DD
:100590007820FFF729FE292000F01BF87CBD000021
:1005A0000004004870B504460D462A2000F011F8FA
:1005B000200A00F023F8E0B200F020F82B2000F031
:1005C00008F8280A00F01AF8E8B2BDE8704000F018
:1005D00015B870B505464FF0904401212046FFF74D
:1005E0005FFE04212046FFF75BFE284600F02CFA50
:1005F0002046BDE870400121FFF754BE70B50546A6
:100600004FF0904401212046FFF74AFE0421204686
:10061000FFF748FE284600F017FA2046BDE8704074
:100620000121FFF73FBE70B504464FF09045012110
:100630002846FFF735FE04212846FFF733FE200A3F
:1006400000F002FAE0B200F0FFF92846BDE8704081
:100650000121FFF727BEFEE77047000070B50F23AA
:10066000C27801260178002A1ED0144A126802F4CA
:10067000E062C2F5E062120AC2F10404D340457898
:10068000A54082781A402A43120101F1E02181F845
:100690000024007800F01F018E404009800000F126
:1006A000E020C0F8006170BD01F01F0086404809DD
:1006B000800000F1E020C0F8806170BD0CED00E02A
:1006C0000249084302490860704700000000FA052B
:1006D0000CED00E070470000054A002903D0516985
:1006E0000143516170475169814351617047000076
:1006F00000100240054A002903D0D1690143D161AD
:100700007047D1698143D1617047000000100240F9
:100710002DE9F0470021DFF82083D8F8042002F00B
:100720000C02C64E002A3AD0042A3AD0082A3AD0FF
:100730000660D8F8042002F0F0021209C04CA55C53
:10074000026822FA05F34360D8F8047007F4E06702
:100750003F0A14F807C023FA0CF78760D8F804C0E2
:100760000CF4605C4FEADC2C14F80C40E340C360EE
:10077000D8F82CC04FEA1C1CDFF8C4A20CF00F09FB
:100780000AF1100A3AF819905FEACC6C24D5B9F155
:10079000000F21D0B1FBF9FCC0F810C01DE00660CD
:1007A000C7E70660C5E7D8F8041001F47011D8F85F
:1007B000042002F48032022303EB91414AB1D8F8BD
:1007C0002C2002F00F02521CB6FBF2F251430160E2
:1007D000AFE79C4A5143FAE70261D8F82CC04FEAD0
:1007E0005C2C0CF00F093AF819905FEACC6C07D535
:1007F000B9F1000F04D0B1FBF9FCC0F814C000E05F
:100800004261D8F830C05FEACC6C01D4866100E068
:100810008261D8F830C05FEA8C6C01D4C66100E018
:10082000C261D8F830C05FEA4C6C01D4066200E0C7
:100830000262D8F830C05FEACC5C08D58A4206D1A3
:10084000AC4204D14FEA410CC0F824C000E043623E
:10085000D8F830C05FEACC4C08D58A4206D1AC4209
:1008600004D14FEA410CC0F828C000E08362D8F8F8
:1008700030C05FEA8C5C08D58A4206D1AC4204D114
:100880004FEA410CC0F82CC000E0C362D8F830C079
:100890005FEA4C5C08D58A4206D1AC4204D14FEAEB
:1008A000410CC0F84CC000E0C364D8F830C05FEA27
:1008B0000C5C08D58A4206D1AC4204D14FEA410C07
:1008C000C0F850C000E00365D8F830C05FEA8C4C37
:1008D00008D58A4206D1AC4204D14FEA410CC0F897
:1008E00054C000E00365D8F830C05FEA0C4C06D570
:1008F0008A4204D1AC4202D14900816500E083659F
:10090000D8F830108C074FF4004111D0D8F83030AF
:1009100003F00303012B0DD0D8F8303003F00303AC
:10092000022B09D0D8F83030DB439B0706D006E015
:10093000836304E0826302E0816300E08663D8F8A9
:10094000303013F4403F12D0D8F83030C3F30143B5
:10095000012B0ED0D8F83030C3F30143022B0AD05C
:10096000D8F83030C3F30143032B06D006E0C76349
:1009700004E0C26302E0C16300E0C663D8F830302F
:1009800013F4402F12D0D8F83030C3F38143012B39
:100990000ED0D8F83030C3F38143022B0AD0D8F8F8
:1009A0003030C3F38143032B06D006E0076404E034
:1009B000026402E0016400E00664D8F8303013F409
:1009C000401F12D0D8F83030C3F30153012B0ED0A2
:1009D000D8F83030C3F30153022B0AD0D8F83030A6
:1009E000C3F30153032B06D006E0476404E04264DE
:1009F00002E0416400E04664D8F8303013F4400F60
:100A000014D0D8F83030C3F38153012B10D0D8F86C
:100A10003020C2F38152022A0CD0D8F83010C1F332
:100A20008151032900D18664BDE8F0878764FBE724
:100A30008264F9E78164F7E70010024000127A004F
:100A40000000002000093D002DE9F041054600248A
:100A50000F4F4FF400484FF4006631463846FFF719
:100A60001FFC280604D541463846FFF71BFC03E06F
:100A700041463846FFF714FC31463846FFF712FC72
:100A80006806050E641C082CE7DBBDE8F081000059
:100A900000040048704700000CB50022019200924B
:100AA0002248016841F4803101604FF4A04301689D
:100AB00001F4003100910199491C0191009911B98B
:100AC00001999942F3D10168890302D5012100916E
:100AD00000E000920099012926D1154A12211160E7
:100AE0004168416041684160416841F48061416012
:100AF000416821F47C114160416841F4E811416092
:100B0000016841F08071016001688901FCD541688C
:100B100021F003014160416841F0020141604168F8
:100B2000C1F381010229FAD10CBD0000001002407E
:100B3000002002407047000010B51648016841F4DB
:100B4000700101601448016841F0010101604168D1
:100B5000124A114041600168114A11400160016868
:100B600021F480210160416821F4FE014160C16AE5
:100B700021F00F01C162016B0A4A1140016300219B
:100B80008160FFF789FF03494FF0006080390860FA
:100B900010BD000088ED00E0001002400CC07FF89E
:100BA000FFFFF6FECCFC00FF002904D0016841F0F5
:100BB000010101607047016821F001010160704787
:100BC00010B5C1F3072401238B40022C02D0032C63
:100BD00002D002E0001D00E008301AB1016819439C
:100BE000016010BD01689943016010BD30B597B038
:100BF00004460D46206820F001002060606820F463
:100C00004051A86808436060206841F20C61884345
:100C1000EA68696811432A69024311432160A068A8
:100C200020F4407069690143A1606846FFF770FDD8
:100C30001C48844201D10E990FE01B48844201D127
:100C40000F990AE01948844201D1109905E018482B
:100C5000844201D1119900E012992068000408D55E
:100C60002A684900B1FBF2F0B1FBF2F302FB131169
:100C700006E02A68B1FBF2F0B1FBF2F302FB1311BC
:100C80002A68B1EB520F00D3401C2168090405D536
:100C9000C0F342014FF6F07210400843A08117B034
:100CA00030BD0000003801400044004000480040D2
:100CB000004C0040FEE7000030B589B00121C804B7
:100CC000FFF70AFD01218804FFF714FD4FF440608F
:100CD000079002208DF8200003208DF821000024C9
:100CE0008DF822401A4D07A92846FFF78FFA0722F0
:100CF0000A212846FFF7C4FA07220B212846FFF7EE
:100D0000BFFA4FF4E130019006940C200590049452
:100D1000039402940F4C01A92046FFF767FF0121BD
:100D20002046FFF741FF01220B492046FFF748FF0D
:100D300027208DF8000001208DF803008DF80100B8
:100D40008DF802006846FFF789FC09B030BD00004D
:100D500000080048004800400501050002E008C8FE
:100D6000121F08C1002AFAD170477047002001E025
:100D700001C1121F002AFBD17047FFF7ABFAFFF742
:100D80009BFF4FF4A060FFF79BFC08214FF09040C1
:100D9000FFF788FA4FF47A744FF478454FF4FC6605
:100DA0002046FFF721FA2846FFF77FFA2046FFF793
:100DB0001BFA3046FFF779FA2046FFF715FA1F2095
:100DC000FFF773FAECE70000E80D000800000020D0
:100DD000300000005C0D0008180E000830000020F4
:100DE000000400006C0D0008000000000102030474
:100DF00001020304060708090100020004000600BE
:100E000008000A000C0010002000400080000001D3
:080E10000000000000000000DA
:040000050800019D51
:00000001FF
