:020000040800F2
:10000000300400209D01000863140008C7020008A6
:1000100061140008E5010008ED1C00080000000064
:10002000000000000000000000000000051A0008A9
:10003000E70100080000000091160008A51A00085A
:10004000B7010008B7010008B7010008B7010008B0
:10005000B7010008B7010008B7010008B7010008A0
:10006000B7010008B7010008B7010008B701000890
:10007000B7010008B7010008B7010008B701000880
:10008000B7010008B7010008B7010008B701000870
:10009000B7010008B7010008B7010008B701000860
:1000A000B7010008B7010008B7010008B701000850
:1000B000B7010008B7010008B7010008B701000840
:1000C000B7010008B7010008B7010008B701000830
:1000D000B7010008B7010008B7010008191B0008A4
:1000E000B7010008B7010008B7010008B701000810
:1000F000B7010008B7010008B7010008B701000800
:10010000000000000000000000000000B70100082F
:10011000B7010008B7010008B7010008B7010008DF
:10012000B7010008B7010008B7010008B7010008CF
:10013000B7010008B701000800000000000000003F
:10014000B7010008B7010008B7010008000000006F
:10015000000000000000000000000000000000009F
:100160000000000000000000B7010008B70100080F
:10017000B7010008000000000000000000000000BF
:1001800000000000B7010008DFF80CD000F018F8FC
:1001900000480047B51D000830040020064880478D
:1001A00006480047FEE7FEE7FEE7FEE7FEE7FEE75C
:1001B000FEE7FEE7FEE7FEE7A91A0008890100084E
:1001C000064C074D06E0E06840F0010394E80700A4
:1001D00098471034AC42F6D3FFF7DAFF041E00084C
:1001E000241E0008FEE770474FF0E021486100231D
:1001F0008B61012008610869C20701D0C003FAD5EC
:100200000B618B61704742F2283148434FF0E02187
:10021000486100238B61012008610869C20701D091
:10022000C003FAD50B618B617047F0B5002201273E
:10023000032607FA02F30C681C409C422BD10D796F
:10024000012D01D0022D13D18468550006FA05FC5A
:1002500024EA0C0484604C79AC4085682C438460AB
:1002600084889C43848084888B7993401C43848059
:100270000568530006FA03F4A54305600D79D0F82C
:1002800000C09D4045EA0C050560C568A543CC79D2
:100290009C402C43C460521C102ACAD3F0BD10B538
:1002A0004B07DB0E9A40C90800EB8100016A0F245E
:1002B0009C40A1430162016A1143016210BD0185A6
:1002C000704781617047FEE770B506460024084D0F
:1002D0000021084601F045F84FF4305001F06CF869
:1002E00003E0304601F092F8641CAC42F9D370BDD3
:1002F00000DC05002DE9FC5F0121480401F0CAF98A
:100300000121880401F0C6F90121C80401F0C2F9F5
:100310000121080501F0BEF90121480501F0BAF9F3
:100320000121880501F0B6F903208DF805000120B0
:100330008DF80400800200906946FE48FFF775FFC3
:100340004FF4007500956946FA48FFF76EFF009577
:10035000F94F69463846FFF768FF802000906946EC
:100360003846FFF762FFAC010094DFF8D08369469E
:100370004046FFF75AFF6610009669464046FFF771
:1003800054FFA010009069464046FFF74EFF402002
:100390000090DFF8AC9369464846FFF746FF082017
:1003A000009069464FF09040FFF73FFF0820009013
:1003B00069464046FFF739FF009669464846FFF711
:1003C00034FF009469464846FFF72FFF6011009004
:1003D00069463846FFF729FF2011009069463846E4
:1003E000FFF723FFE010009069463846FFF71DFF36
:1003F000A010009069463846FFF717FF0094694641
:100400003846FFF712FF009669463846FFF70DFFA2
:10041000E01100906946CB48FFF707FF02200090EB
:1004200069464FF09040FFF700FF022000906946B8
:100430004046FFF7FAFE009569464046FFF7F5FE95
:1004400021464046FFF73DFF0A20FFF7DCFE21462C
:100450004046FFF736FF55214FF4704000F0A2FFF1
:10046000AA214FF2010000F09DFF52214FF202003D
:1004700000F098FF08214FF2030000F093FF0121E4
:100480004FF2040000F08EFF0D214FF4304000F0D9
:1004900089FF0D214BF2010000F084FF0D214BF28A
:1004A000020000F07FFF34214FF4364000F07AFF65
:1004B00034214BF2016000F075FF34214BF20260F1
:1004C00000F070FF4FF431440D21204600F06AFF28
:1004D000651C0D21284600F065FF0D21A01C00F0D1
:1004E00061FF4FF437463421304600F05BFF771C44
:1004F0003421384600F056FF3421B01C00F052FF82
:1005000000214FF4324000F04DFF00214BF201205A
:1005100000F048FF00214BF2022000F043FF4FF4AF
:1005200038482421404600F03DFF4BF601092421C4
:10053000484600F037FF4BF6020A2421504600F0EF
:1005400031FF01214FF43F4000F02CFF0F214FF409
:10055000334000F027FF0F214BF2013000F022FF63
:100560000F214BF2023000F01DFF34214FF43940CF
:1005700000F018FF34214BF6011000F013FF342176
:100580004BF6021000F00EFF08214FF4354000F04A
:1005900009FF08214BF2015000F004FF08214BF243
:1005A000025000F0FFFE03214FF4424000F0FAFE3B
:1005B00024214FF43A4000F0F5FE24214BF60120AF
:1005C00000F0F0FE24214BF6022000F0EBFE4FF489
:1005D0003C4B0021584600F0E5FE78214BF60140E7
:1005E00000F0E0FE00214BF6024000F0DBFE0021AF
:1005F0004FF43D4000F0D6FE78214BF6015000F05C
:10060000D1FE00214BF6025000F0CCFE00214FF449
:100610003E4000F0C7FE64214BF6016000F0C2FED0
:1006200000214FF4514000F0BDFE33214DF2011086
:1006300000F0B8FE00214DF2021000F0B3FE3421AC
:100640004DF2031000F0AEFE00214DF2041000F058
:10065000A9FE3A214DF2051000F0A4FE00214DF252
:10066000061000F09FFE4A214DF2071000F09AFE9E
:1006700000214DF2081000F095FE5C214DF20910AA
:1006800000F090FE00214DF20A1000F08BFE812157
:100690004DF20B1000F086FE00214DF20C1000F020
:1006A00081FEA6214DF20D1000F07CFE00214DF2DE
:1006B0000E1000F077FEE5214DF20F1000F072FEF3
:1006C00001214DF2101000F06DFE13214DF21110BA
:1006D00000F068FE01214DF2121000F063FE54217B
:1006E0004DF2131000F05EFE01214DF2141000F0E7
:1006F00059FE82214DF2151000F054FE01214DF2F9
:10070000161000F04FFECA214DF2171000F04AFEFD
:1007100002214DF2181000F045FE00214DF2191093
:1007200000F040FE02214DF21A1000F03BFE0121C4
:100730000AE00000001400480004004800080048D7
:1007400000100048000C00484DF21B1000F02AFE7B
:1007500002214DF21C1000F025FE34214DF21D1037
:1007600000F020FE02214DF21E1000F01BFE67215A
:100770004DF21F1000F016FE02214DF2201000F085
:1007800011FE84214DF2211000F00CFE02214DF2E9
:10079000221000F007FEA4214DF2231000F002FE0B
:1007A00002214DF2241000F0FDFDB7214DF225107D
:1007B00000F0F8FD02214DF2261000F0F3FDCF21EC
:1007C0004DF2271000F0EEFD02214DF2281000F04E
:1007D000E9FDDE214DF2291000F0E4FD02214DF289
:1007E0002A1000F0DFFDF2214DF22B1000F0DAFDAF
:1007F00002214DF22C1000F0D5FDFE214DF22D10FE
:1008000000F0D0FD03214DF22E1000F0CBFD1021A1
:100810004DF22F1000F0C6FD03214DF2301000F014
:10082000C1FD33214DF2311000F0BCFD03214DF22A
:10083000321000F0B7FD6D214DF2331000F0B2FD23
:1008400000214FF4524000F0ADFD33214DF2012064
:1008500000F0A8FD00214DF2022000F0A3FD34219C
:100860004DF2032000F09EFD00214DF2042000F027
:1008700099FD3A214DF2052000F094FD00214DF242
:10088000062000F08FFD4A214DF2072000F08AFD7E
:1008900000214DF2082000F085FD5C214DF2092079
:1008A00000F080FD00214DF20A2000F07BFD812147
:1008B0004DF20B2000F076FD00214DF20C2000F0EF
:1008C00071FDA6214DF20D2000F06CFD00214DF2CE
:1008D0000E2000F067FDE5214DF20F2000F062FDD3
:1008E00001214DF2102000F05DFD13214DF2112089
:1008F00000F058FD01214DF2122000F053FD54216B
:100900004DF2132000F04EFD01214DF2142000F0B5
:1009100049FD82214DF2152000F044FD01214DF2E8
:10092000162000F03FFDCA214DF2172000F03AFDDD
:1009300002214DF2182000F035FD00214DF2192062
:1009400000F030FD02214DF21A2000F02BFD0121B4
:100950004DF21B2000F026FD02214DF21C2000F07C
:1009600021FD34214DF21D2000F01CFD02214DF22D
:100970001E2000F017FD67214DF21F2000F012FD30
:1009800002214DF2202000F00DFD84214DF22120A6
:1009900000F008FD02214DF2222000F003FDA42109
:1009A0004DF2232000F0FEFC02214DF2242000F045
:1009B000F9FCB7214DF2252000F0F4FC02214DF2A4
:1009C000262000F0EFFCCF214DF2272000F0EAFCBA
:1009D00002214DF2282000F0E5FCDE214DF2292015
:1009E00000F0E0FC02214DF22A2000F0DBFCF221B5
:1009F0004DF22B2000F0D6FC02214DF22C2000F00D
:100A0000D1FCFE214DF22D2000F0CCFC03214DF253
:100A10002E2000F0C7FC10214DF22F2000F0C2FC68
:100A200003214DF2302000F0BDFC33214DF2312086
:100A300000F0B8FC03214DF2322000F0B3FC6D2130
:100A40004DF2332000F0AEFC00214FF4534000F093
:100A5000A9FC33214DF2013000F0A4FC00214DF23D
:100A6000023000F09FFC34214DF2033000F09AFC7C
:100A700000214DF2043000F095FC3A214DF2053092
:100A800000F090FC00214DF2063000F08BFC4A2172
:100A90004DF2073000F086FC00214DF2083000F0E6
:100AA00081FC5C214DF2093000F07CFC00214DF20C
:100AB0000A3000F077FC81214DF20B3000F072FC1F
:100AC00000214DF20C3000F06DFCA6214DF20D30EE
:100AD00000F068FC00214DF20E3000F063FCE521CF
:100AE0004DF20F3000F05EFC01214DF2103000F0AD
:100AF00059FC13214DF2113000F054FC01214DF24C
:100B0000123000F04FFC54214DF2133000F04AFC3B
:100B100001214DF2143000F045FC82214DF21530D8
:100B200000F040FC01214DF2163000F03BFCCA21E0
:100B30004DF2173000F036FC02214DF2183000F073
:100B400031FC00214DF2193000F02CFC02214DF255
:100B50001A3000F027FC01214DF21B3000F022FC7E
:100B600002214DF21C3000F01DFC34214DF21D30ED
:100B700000F018FC02214DF21E3000F013FC67213A
:100B80004DF21F3000F00EFC02214DF2203000F03B
:100B900009FC84214DF2213000F004FC02214DF2C9
:100BA000223000F0FFFBA4214DF2233000F0FAFBCD
:100BB00002214DF2243000F0F5FBB7214DF2253033
:100BC00000F0F0FB02214DF2263000F0EBFBCF21CC
:100BD0004DF2273000F0E6FB02214DF2283000F004
:100BE000E1FBDE214DF2293000F0DCFB02214DF269
:100BF0002A3000F0D7FBF2214DF22B3000F0D2FB6F
:100C000002214DF22C3000F0CDFBFE214DF22D30B3
:100C100000F0C8FB03214DF22E3000F0C3FB102181
:100C20004DF22F3000F0BEFB03214DF2303000F0CA
:100C3000B9FB33214DF2313000F0B4FB03214DF20A
:100C4000323000F0AFFB6D214DF2333000F0AAFBE3
:100C500000214FF4544000F0A5FB33214DF2014038
:100C600000F0A0FB00214DF2024000F09BFB34217C
:100C70004DF2034000F096FB00214DF2044000F0DD
:100C800091FB3A214DF2054000F08CFB00214DF222
:100C9000064000F087FB4A214DF2074000F082FB3E
:100CA00000214DF2084000F07DFB5C214DF209402F
:100CB00000F078FB00214DF20A4000F073FB812127
:100CC0004DF20B4000F06EFB00214DF20C4000F0A5
:100CD00069FBA6214DF20D4000F064FB00214DF2AE
:100CE0000E4000F05FFBE5214DF20F4000F05AFB93
:100CF00001214DF2104000F055FB13214DF211403F
:100D000000F050FB01214DF2124000F04BFB54214A
:100D10004DF2134000F046FB01214DF2144000F06B
:100D200041FB82214DF2154000F03CFB01214DF2C8
:100D3000164000F037FBCA214DF2174000F032FB9D
:100D400002214DF2184000F02DFB00214DF2194018
:100D500000F028FB02214DF21A4000F023FB012194
:100D60004DF21B4000F01EFB02214DF21C4000F032
:100D700019FB34214DF21D4000F014FB02214DF20D
:100D80001E4000F00FFB67214DF21F4000F00AFBF0
:100D900002214DF2204000F005FB84214DF221405C
:100DA00000F000FB02214DF2224000F0FBFAA421EA
:100DB0004DF2234000F0F6FA02214DF2244000F0FB
:100DC000F1FAB7214DF2254000F0ECFA02214DF284
:100DD000264000F0E7FACF214DF2274000F0E2FA7A
:100DE00002214DF2284000F0DDFADE214DF22940CB
:100DF00000F0D8FA02214DF22A4000F0D3FAF22195
:100E00004DF22B4000F0CEFA02214DF22C4000F0C2
:100E1000C9FAFE214DF22D4000F0C4FA03214DF233
:100E20002E4000F0BFFA10214DF22F4000F0BAFA28
:100E300003214DF2304000F0B5FA33214DF231403C
:100E400000F0B0FA03214DF2324000F0ABFA6D2110
:100E50004DF2334000F0A6FA00214FF4554000F067
:100E6000A1FA33214DF2015000F09CFA00214DF21D
:100E7000025000F097FA34214DF2035000F092FA3C
:100E800000214DF2045000F08DFA3A214DF2055048
:100E900000F088FA00214DF2065000F083FA4A2152
:100EA0004DF2075000F07EFA00214DF2085000F09C
:100EB00079FA5C214DF2095000F074FA00214DF2EC
:100EC0000A5000F06FFA81214DF20B5000F06AFADF
:100ED00000214DF20C5000F065FAA6214DF20D50A4
:100EE00000F060FA00214DF20E5000F05BFAE521AF
:100EF0004DF20F5000F056FA01214DF2105000F063
:100F000051FA13214DF2115000F04CFA01214DF22B
:100F1000125000F047FA54214DF2135000F042FAFB
:100F200001214DF2145000F03DFA82214DF215508E
:100F300000F038FA01214DF2165000F033FACA21C0
:100F40004DF2175000F02EFA02214DF2185000F029
:100F500029FA00214DF2195000F024FA02214DF235
:100F60001A5000F01FFA01214DF21B5000F01AFA3E
:100F700002214DF21C5000F015FA34214DF21D50A3
:100F800000F010FA02214DF21E5000F00BFA67211A
:100F90004DF21F5000F006FA02214DF2205000F0F1
:100FA00001FA84214DF2215000F0FCF902214DF2AA
:100FB000225000F0F7F9A4214DF2235000F0F2F98D
:100FC00002214DF2245000F0EDF9B7214DF22550E9
:100FD00000F0E8F902214DF2265000F0E3F9CF21AC
:100FE0004DF2275000F0DEF902214DF2285000F0BA
:100FF000D9F9DE214DF2295000F0D4F902214DF249
:101000002A5000F0CFF9F2214DF22B5000F0CAF92E
:1010100002214DF22C5000F0C5F9FE214DF22D5069
:1010200000F0C0F903214DF22E5000F0BBF9102161
:101030004DF22F5000F0B6F903214DF2305000F080
:10104000B1F933214DF2315000F0ACF903214DF2EA
:10105000325000F0A7F96D214DF2335000F0A2F9A3
:1010600000214FF4564000F09DF933214DF201600C
:1010700000F098F900214DF2026000F093F934215C
:101080004DF2036000F08EF900214DF2046000F093
:1010900089F93A214DF2056000F084F900214DF202
:1010A000066000F07FF94A214DF2076000F07AF9FE
:1010B00000214DF2086000F075F95C214DF20960E5
:1010C00000F070F900214DF20A6000F06BF9812107
:1010D0004DF20B6000F066F900214DF20C6000F05B
:1010E00061F9A6214DF20D6000F05CF900214DF28E
:1010F0000E6000F057F9E5214DF20F6000F052F953
:1011000001214DF2106000F04DF913214DF21160F4
:1011100000F048F901214DF2126000F043F954212A
:101120004DF2136000F03EF901214DF2146000F021
:1011300039F982214DF2156000F034F901214DF2A8
:10114000166000F02FF9CA214DF2176000F02AF95D
:1011500002214DF2186000F025F900214DF21960CE
:1011600000F020F902214DF21A6000F01BF9012174
:101170004DF21B6000F016F902214DF21C6000F0E8
:1011800011F934214DF21D6000F00CF902214DF2ED
:101190001E6000F007F967214DF21F6000F002F9B0
:1011A00002214DF2206000F0FDF884214DF2216013
:1011B00000F0F8F802214DF2226000F0F3F8A421CB
:1011C0004DF2236000F0EEF802214DF2246000F0B1
:1011D000E9F8B7214DF2256000F0E4F802214DF264
:1011E000266000F0DFF8CF214DF2276000F0DAF83A
:1011F00002214DF2286000F0D5F8DE214DF2296081
:1012000000F0D0F802214DF22A6000F0CBF8F22174
:101210004DF22B6000F0C6F802214DF22C6000F078
:10122000C1F8FE214DF22D6000F0BCF803214DF213
:101230002E6000F0B7F810214DF22F6000F0B2F8E8
:1012400003214DF2306000F0ADF833214DF23160F2
:1012500000F0A8F803214DF2326000F0A3F86D21F0
:101260004DF2336000F09EF855214FF4704000F0CD
:1012700099F8AA214FF2010000F094F852214FF2A0
:10128000020000F08FF808214FF2030000F08AF806
:1012900000214FF2040000F085F8CC21204600F038
:1012A00081F80021284600F07DF805214FF43640F2
:1012B00000F078F87021304600F074F8702138465C
:1012C00000F070F80121404600F06CF80321484618
:1012D00000F068F80321504600F064F803214BF653
:1012E000030000F05FF80221584600F05BF800218F
:1012F0004BF6014000F056F800214BF6024000F09A
:1013000051F8D0214FF4494000F04CF802214CF63E
:10131000011000F047F850214CF6021000F042F89E
:1013200050214CF6031000F03DF850214CF604100B
:1013300000F038F800214FF4545000F033F85521F4
:101340004FF4685000F02EF84FF4885000F034F855
:101350007820FEF749FF4FF4245000F02DF8BDE847
:10136000FC9F70B504460D464FF4285000F024F859
:10137000200A00F04BF842F6012000F01DF8E0B220
:1013800000F044F84FF42C5000F016F8280A00F052
:101390003DF842F6013000F00FF8E8B2BDE87040C9
:1013A00000F034B810B50C4600F006F82046BDE851
:1013B000104000F02BB800002DE9F0418046114D9F
:1013C0004FF4007421462846FEF779FF6600314647
:1013D0002846FEF774FF0C4F80213846FEF771FF58
:1013E00021463846FEF76BFF404600F077F821466D
:1013F0003846FEF766FF31462846BDE8F041FEF765
:1014000060BF000000140048000400482DE9F041CE
:101410008046114D4FF4007421462846FEF751FFD7
:10142000660031462846FEF74AFF0C4F80213846B9
:10143000FEF747FF21463846FEF741FF404600F0E1
:101440004DF821463846FEF73CFF31462846BDE8B8
:10145000F041FEF736BF00000014004800040048C9
:10146000FEE7704770B50F23C27801260178002A85
:101470001ED0144A126802F4E062C2F5E062120A59
:10148000C2F10404D3404578A54082781A402A432B
:10149000120101F1E02181F80024007800F01F0121
:1014A0008E404009800000F1E020C0F8006170BD6E
:1014B00001F01F0086404809800000F1E020C0F8DC
:1014C000806170BD0CED00E00249084302490860EC
:1014D000704700000000FA050CED00E02DE9F04730
:1014E0000446674DE0074FF4804604D03146284655
:1014F000FEF7E7FE03E031462846FEF7E0FE60080F
:10150000C0074FF4005704D039462846FEF7D9FEED
:1015100003E039462846FEF7D2FEA008DFF864A1B2
:10152000C00704D040215046FEF7CBFE03E0402127
:101530005046FEF7C4FEE008C0074FF0904804D0C4
:1015400008214046FEF7BDFE03E008214046FEF7B5
:10155000B6FE2009C00704D008212846FEF7B1FED8
:1015600003E008212846FEF7AAFE6009C00704D060
:1015700031465046FEF7A5FE03E031465046FEF7E1
:101580009EFEA009C0074FF4004904D049465046CA
:10159000FEF797FE03E049465046FEF790FEE0094D
:1015A000DFF8E4A0C0074FF4806103D05046FEF797
:1015B00088FE02E05046FEF782FE200AC0074FF484
:1015C000006103D05046FEF77CFE02E05046FEF775
:1015D00076FE600AC0074FF4805103D05046FEF7F4
:1015E00070FE02E05046FEF76AFEA00AC00704D073
:1015F00039465046FEF765FE03E039465046FEF791
:101600005EFEE00AC00704D049465046FEF759FE88
:1016100003E049465046FEF752FE200BC00704D0B7
:1016200031465046FEF74DFE03E031465046FEF788
:1016300046FE600B154AC0074FF4807103D0104678
:10164000FEF73FFE02E01046FEF739FEA00BC00792
:1016500004D002214046FEF734FE03E0022140465A
:10166000FEF72DFEE00B05D02846BDE8F04702212D
:10167000FEF727BE2846BDE8F0470221FEF71FBE51
:10168000000800480010004800040048000C004812
:1016900070470000054A002903D051690143516198
:1016A000704751698143516170470000001002404A
:1016B000054A002903D0D1690143D1617047D1693E
:1016C0008143D16170470000001002402DE9F047CE
:1016D0000021DFF82083D8F8042002F00C02C64E67
:1016E000002A3AD0042A3AD0082A3AD00660D8F81C
:1016F000042002F0F0021209C04CA55C026822FA34
:1017000005F34360D8F8047007F4E0673F0A14F863
:1017100007C023FA0CF78760D8F804C00CF4605CAB
:101720004FEADC2C14F80C40E340C360D8F82CC01E
:101730004FEA1C1CDFF8C4A20CF00F090AF1100AD2
:101740003AF819905FEACC6C24D5B9F1000F21D09A
:10175000B1FBF9FCC0F810C01DE00660C7E70660E9
:10176000C5E7D8F8041001F47011D8F8042002F489
:101770008032022303EB91414AB1D8F82C2002F0C9
:101780000F02521CB6FBF2F251430160AFE79C4AD4
:101790005143FAE70261D8F82CC04FEA5C2C0CF0F8
:1017A0000F093AF819905FEACC6C07D5B9F1000F30
:1017B00004D0B1FBF9FCC0F814C000E04261D8F8D5
:1017C00030C05FEACC6C01D4866100E08261D8F859
:1017D00030C05FEA8C6C01D4C66100E0C261D8F809
:1017E00030C05FEA4C6C01D4066200E00262D8F8B7
:1017F00030C05FEACC5C08D58A4206D1AC4204D145
:101800004FEA410CC0F824C000E04362D8F830C071
:101810005FEACC4C08D58A4206D1AC4204D14FEAEB
:10182000410CC0F828C000E08362D8F830C05FEAFD
:101830008C5C08D58A4206D1AC4204D14FEA410CF7
:10184000C0F82CC000E0C362D8F830C05FEA4C5C3E
:1018500008D58A4206D1AC4204D14FEA410CC0F807
:101860004CC000E0C364D8F830C05FEA0C5C08D517
:101870008A4206D1AC4204D14FEA410CC0F850C0B4
:1018800000E00365D8F830C05FEA8C4C08D58A4286
:1018900006D1AC4204D14FEA410CC0F854C000E07C
:1018A0000365D8F830C05FEA0C4C06D58A4204D1F3
:1018B000AC4202D14900816500E08365D8F8301060
:1018C0008C074FF4004111D0D8F8303003F00303F7
:1018D000012B0DD0D8F8303003F00303022B09D0D0
:1018E000D8F83030DB439B0706D006E0836304E082
:1018F000826302E0816300E08663D8F8303013F43D
:10190000403F12D0D8F83030C3F30143012B0ED042
:10191000D8F83030C3F30143022B0AD0D8F8303066
:10192000C3F30143032B06D006E0C76304E0C263A0
:1019300002E0C16300E0C663D8F8303013F4402FF2
:1019400012D0D8F83030C3F38143012B0ED0D8F831
:101950003030C3F38143022B0AD0D8F83030C3F3C0
:101960008143032B06D006E0076404E0026402E032
:10197000016400E00664D8F8303013F4401F12D040
:10198000D8F83030C3F30153012B0ED0D8F83030E3
:10199000C3F30153022B0AD0D8F83030C3F30153FC
:1019A000032B06D006E0476404E0426402E0416491
:1019B00000E04664D8F8303013F4400F14D0D8F863
:1019C0003030C3F38153012B10D0D8F83020C2F34C
:1019D0008152022A0CD0D8F83010C1F3815103296A
:1019E00000D18664BDE8F0878764FBE78264F9E78D
:1019F0008164F7E70010024000127A000000002026
:101A000000093D00704700000CB5002201920092D1
:101A10002248016841F4803101604FF4A04301681D
:101A200001F4003100910199491C0191009911B90B
:101A300001999942F3D10168890302D501210091EE
:101A400000E000920099012926D1154A1221116067
:101A50004168416041684160416841F48061416092
:101A6000416821F47C114160416841F4E811416012
:101A7000016841F08071016001688901FCD541680D
:101A800021F003014160416841F002014160416879
:101A9000C1F381010229FAD10CBD000000100240FF
:101AA000002002407047000010B51648016841F45C
:101AB000700101601448016841F001010160416852
:101AC000124A114041600168114A114001600168E9
:101AD00021F480210160416821F4FE014160C16A66
:101AE00021F00F01C162016B0A4A1140016300211C
:101AF0008160FFF789FF03494FF00060803908607B
:101B000010BD000088ED00E0001002400CC07FF81E
:101B1000FFFFF6FECCFC00FF10B51D4C1B49204614
:101B200000F046F8002830D0204600F0D7F86115C4
:101B3000184A61280ED0622811D0632814D0642876
:101B400018D065281CD02046BDE810404FF6FF7124
:101B500000F0C8B8BDE810401046FEF7B0BBBDE8C5
:101B600010401046FEF7ADBBBDE810404FF4784082
:101B7000FEF7AABBBDE810404FF4FC60FEF7A4BB23
:101B8000BDE810401F20FEF79FBB10BD05010500FA
:101B90000048004000080048002904D0016841F0D6
:101BA000010101607047016821F001010160704787
:101BB00030B50024C1F30723012505FA01F2012BFA
:101BC0000CD0022B0DD083681340090C8D40C069E6
:101BD00028400BB100B10124204630BD03681340FA
:101BE000F3E743681340F0E710B5C1F3072401237E
:101BF0008B40022C02D0032C02D002E0001D00E03A
:101C000008301AB101681943016010BD0168994399
:101C1000016010BD30B597B004460D46206820F035
:101C200001002060606820F44051A86808436060AB
:101C3000206841F20C618843EA68696811432A69A7
:101C4000024311432160A06820F440706969014398
:101C5000A1606846FFF73AFD1C48844201D10E9905
:101C60000FE01B48844201D10F990AE019488442D1
:101C700001D1109905E01848844201D1119900E082
:101C800012992068000408D52A684900B1FBF2F0D7
:101C9000B1FBF2F302FB131106E02A68B1FBF2F08C
:101CA000B1FBF2F302FB13112A68B1EB520F00D320
:101CB000401C2168090405D5C0F342014FF6F072BB
:101CC00010400843A08117B030BD0000003801402B
:101CD0000044004000480040004C0040808CC0F3AD
:101CE00008007047C1F3080101857047FEE7000056
:101CF00030B589B00121C804FFF7CCFC012188046C
:101D0000FFF7D6FC4FF44060079002208DF82000CA
:101D100003208DF8210000248DF822401A4D07A9D8
:101D20002846FEF782FA07220A212846FEF7B7FA6C
:101D300007220B212846FEF7B2FA4FF4E13001905A
:101D400006940C2005900494039402940F4C01A96E
:101D50002046FFF75FFF01212046FFF71DFF01220C
:101D60000B492046FFF740FF27208DF80000012097
:101D70008DF803008DF801008DF802006846FFF72A
:101D800071FB09B030BD0000000800480048004069
:101D90000501050002E008C8121F08C1002AFAD197
:101DA00070477047002001E001C1121F002AFBD1DB
:101DB00070470000FEF79EFAFFF79AFF4FF4A0600D
:101DC000FFF782FB4FF400710D48FEF77AFA4FF4EB
:101DD00078454FF47A744FF4FC662846FEF774FA9F
:101DE0002046FEF710FA3046FEF76EFA2046FEF760
:101DF0000AFA1F20FEF768FA2046FEF704FAECE71D
:101E000000080048241E00080000002030000000E8
:101E1000941D0008541E000830000020000400003B
:101E2000A41D0008000000000102030401020304D5
:101E300006070809010002000400060008000A0065
:101E40000C00100020004000800000010000000095
:041E5000000000008E
:040000050800019D51
:00000001FF
