:020000040800F2
:1000000000040020C1010008F1020008B10200084C
:10001000ED020008090200082105000800000000A8
:100020000000000000000000000000009303000832
:100030000D02000800000000F3020008B5040008EB
:10004000DB010008DB010008DB0100087503000884
:10005000DB010008DB010008DB010008DB01000810
:10006000DB010008DB010008DB010008DB01000800
:10007000DB010008DB010008DB010008DB010008F0
:10008000DB010008DB010008DB010008DB010008E0
:10009000DB010008DB010008DB010008DB010008D0
:1000A000DB010008DB010008DB010008DB010008C0
:1000B000DB010008DB010008DB010008DB010008B0
:1000C000DB010008DB010008DB010008DB010008A0
:1000D000DB010008DB010008DB010008DB01000890
:1000E000DB010008DB010008DB010008DB01000880
:1000F000DB010008DB010008DB010008DB01000870
:10010000DB010008DB010008DB010008DB0100085F
:10011000DB010008DB010008DB010008DB0100084F
:10012000DB010008DB010008DB010008DB0100083F
:10013000DB010008DB010008DB010008DB0100082F
:10014000DB010008DB010008DB010008DB0100081F
:10015000DB010008DB010008DB010008DB0100080F
:10016000DB010008DB010008DB010008DB010008FF
:10017000DB010008DB010008DB010008DB010008EF
:10018000DB010008DB010008DB010008DB010008DF
:10019000DB010008DB010008DB010008DB010008CF
:1001A000DB010008DB010008DB010008DFF80CD0F0
:1001B00000F018F80048004745050008000400203A
:1001C0000648804706480047FEE7FEE7FEE7FEE7F1
:1001D000FEE7FEE7FEE7FEE7FEE7FEE7B9040008FC
:1001E000AD010008064C074D06E0E06840F0010351
:1001F00094E8070098471034AC42F6D3FFF7DAFFD3
:10020000640500087405000800BFFEE770470000A1
:100210000149086070470000143C0140F0B50A46EF
:1002200000210023002400BF3DE0012505FA01F371
:10023000156805EA03049C4234D105684F00032683
:10024000BE40B543056015794E00B540066835439C
:1002500005601579012D02D01579022D16D185681A
:100260004F000326BE40B543856055794E00B5402A
:10027000866835438560456801268E40B5434560F4
:10028000456896798E40B6B235434560C5684F00E3
:100290000326BE40B543C560D5794E00B540C6685B
:1002A0003543C560491C1029BFD3F0BD0183704799
:1002B00000BFFEE71CB50121402000F01BF8012023
:1002C0008DF804004003009002208DF80500694677
:1002D0000548FFF7A3FF4FF48040009069460248AD
:1002E000FFF79CFF1CBD00000018024000BFFEE7A6
:1002F0007047704729B1064A12680243044B1A60DE
:1003000004E0034A12688243014B1A607047000000
:1003100030380240002101098AB242F08002044BC9
:100320001B6803F0800363EA0202014B1A60704706
:100330000C28004030B501460020002200230C4C60
:10034000246804F004020A4C383C24680C4002EA99
:10035000D13544EA0503064C343C246804EA111202
:100360001BB194B20CB1012000E0002030BD0000B0
:100370004028004010B54FF48040FFF7DBFF38B154
:100380004FF48040FFF7C6FF4FF48000FFF740FFB7
:1003900010BD70470CB500200190009041480068E6
:1003A00040F480303F49086000BF3E48006800F4D8
:1003B000003000900198401C0190009818B90198F5
:1003C000B0F5A04FF1D13748006800F4003010B10B
:1003D0000120009001E0002000900098012860D1E9
:1003E00030484030006840F080502E49403108606D
:1003F0002D48006840F440402B49086029480830E7
:1004000000682849083108600846006840F4004048
:1004100008600846006840F4A05008602348091F9F
:100420000860081F006840F08070091F086000BF66
:100430001C48006800F000700028F9D01A480068D5
:1004400040F480301849086000BF1748406800F445
:1004500080300028F9D01448006840F40030124978
:10046000086000BF1048406800F400300028F9D050
:1004700040F205700E4908600A480830006820F014
:1004800003000849083108600846006840F002008F
:10049000086000BF03480830006800F00C0008281E
:1004A000F8D10CBD0038024000700040195A4007D6
:1004B000003C02407047000010B51548006840F449
:1004C0007000134908601348006840F001001149AA
:1004D000086000200F49083108600E4800680E4986
:1004E00008400C4908600D48091D0860081F006895
:1004F00020F48020091F0860002006490C310860A4
:10050000FFF748FF4FF0006001498039086010BDD7
:1005100088ED00E000380240FFFFF6FE10300024B6
:1005200000BFFEE702E008C8121F08C1002AFAD186
:1005300070477047002001E001C1121F002AFBD163
:1005400070470000FFF7B6FE09E04FF40051044881
:10055000FFF7ACFE4FF480410148FFF7A7FEF4E738
:10056000001802407405000800000020000400008C
:040570003405000846
:04000005080001C12D
:00000001FF
