:020000040800F2
:10000000300400209D010008EF030008A70200084B
:10001000ED030008E5010008950A00080000000053
:10002000000000000000000000000000FD070008C4
:10003000E701000800000000890400089D0800088E
:10004000B7010008B7010008B7010008B7010008B0
:10005000B7010008B7010008B7010008B7010008A0
:10006000B7010008B7010008B7010008B701000890
:10007000B7010008B7010008B7010008B701000880
:10008000B7010008B7010008B7010008B701000870
:10009000B7010008B7010008B7010008B701000860
:1000A000B7010008B7010008B7010008B701000850
:1000B000B7010008B7010008B7010008B701000840
:1000C000B7010008B7010008B7010008B701000830
:1000D000B7010008B7010008B701000811090008BE
:1000E000B7010008B7010008B7010008B701000810
:1000F000B7010008B7010008B7010008B701000800
:10010000000000000000000000000000B70100082F
:10011000B7010008B7010008B7010008B7010008DF
:10012000B7010008B7010008B7010008B7010008CF
:10013000B7010008B701000800000000000000003F
:10014000B7010008B7010008B7010008000000006F
:10015000000000000000000000000000000000009F
:100160000000000000000000B7010008B70100080F
:10017000B7010008000000000000000000000000BF
:1001800000000000B7010008DFF80CD000F018F8FC
:10019000004800475D0B00083004002006488047F7
:1001A00006480047FEE7FEE7FEE7FEE7FEE7FEE75C
:1001B000FEE7FEE7FEE7FEE7A10800088901000868
:1001C000064C074D06E0E06840F0010394E80700A4
:1001D00098471034AC42F6D3FFF7DAFF9C0B0008C7
:1001E000BC0B0008FEE770474FF0E02100EBC000B9
:1001F000486100238B61012008610869C20701D0B2
:10020000C003FAD50B618B617047F0B5002201275E
:10021000032607FA02F30C681C409C422BD10D798F
:10022000012D01D0022D13D18468550006FA05FC7A
:1002300024EA0C0484604C79AC4085682C438460CB
:1002400084889C43848084888B7993401C43848079
:100250000568530006FA03F4A54305600D79D0F84C
:1002600000C09D4045EA0C050560C568A543CC79F2
:100270009C402C43C460521C102ACAD3F0BD10B558
:100280004B07DB0E9A40C90800EB8100016A0F247E
:100290009C40A1430162016A1143016210BD0185C6
:1002A000704781617047FEE710B5154C4FF48071BF
:1002B0002046FFF7F4FF4FF400712046FFF7EFFFF1
:1002C0004FF480612046FFF7EAFF4FF400612046BB
:1002D000FFF7E5FF4FF480512046FFF7E0FF4FF4B2
:1002E00000512046FFF7DBFF4FF480412046FFF727
:1002F000D6FF2046BDE810404FF40041FFF7CFBFC6
:100300000010004810B5154C4FF480712046FFF7DF
:10031000C8FF4FF400712046FFF7C3FF4FF4806120
:100320002046FFF7BEFF4FF400612046FFF7B9FFFC
:100330004FF480512046FFF7B4FF4FF400512046A0
:10034000FFF7AFFF4FF480412046FFF7AAFF20469A
:10035000BDE810404FF40041FFF7A3BF0010004874
:100360001CB50121480500F091F801208DF804002A
:100370000002009003208DF805001B4C69462046C2
:10038000FFF743FF4FF40071009169462046FFF7E5
:100390003CFF4FF48061009169462046FFF735FF2E
:1003A0004FF40061009169462046FFF72EFF4FF49D
:1003B0008051009169462046FFF727FF4FF4005116
:1003C000009169462046FFF720FF4FF480410091DD
:1003D00069462046FFF719FF4FF400410091694636
:1003E0002046FFF712FF1CBD00100048FEE77047D3
:1003F00070B50F23C27801260178002A1ED0144A56
:10040000126802F4E062C2F5E062120AC2F104046A
:10041000D3404578A54082781A402A43120101F161
:10042000E02181F80024007800F01F018E4040098F
:10043000800000F1E020C0F8006170BD01F01F00F5
:1004400086404809800000F1E020C0F8806170BD5E
:100450000CED00E0024908430249086070470000C3
:100460000000FA050CED00E01CB501208DF8040039
:100470008020009003208DF8050069460148FFF7B1
:10048000C4FE1CBD0010004870470000054A00294A
:1004900003D05169014351617047516981435161F2
:1004A0007047000000100240054A002903D0D169BE
:1004B0000143D1617047D1698143D1617047000028
:1004C000001002402DE9F0470021DFF82083D8F822
:1004D000042002F00C02C64E002A3AD0042A3AD078
:1004E000082A3AD00660D8F8042002F0F002120977
:1004F000C04CA55C026822FA05F34360D8F804708A
:1005000007F4E0673F0A14F807C023FA0CF7876086
:10051000D8F804C00CF4605C4FEADC2C14F80C40F2
:10052000E340C360D8F82CC04FEA1C1CDFF8C4A21B
:100530000CF00F090AF1100A3AF819905FEACC6C36
:1005400024D5B9F1000F21D0B1FBF9FCC0F810C0DF
:100550001DE00660C7E70660C5E7D8F8041001F49F
:100560007011D8F8042002F48032022303EB914189
:100570004AB1D8F82C2002F00F02521CB6FBF2F25E
:1005800051430160AFE79C4A5143FAE70261D8F852
:100590002CC04FEA5C2C0CF00F093AF819905FEA76
:1005A000CC6C07D5B9F1000F04D0B1FBF9FCC0F851
:1005B00014C000E04261D8F830C05FEACC6C01D4CE
:1005C000866100E08261D8F830C05FEA8C6C01D4AB
:1005D000C66100E0C261D8F830C05FEA4C6C01D45B
:1005E000066200E00262D8F830C05FEACC5C08D551
:1005F0008A4206D1AC4204D14FEA410CC0F824C073
:1006000000E04362D8F830C05FEACC4C08D58A429B
:1006100006D1AC4204D14FEA410CC0F828C000E03A
:100620008362D8F830C05FEA8C5C08D58A4206D174
:10063000AC4204D14FEA410CC0F82CC000E0C362C8
:10064000D8F830C05FEA4C5C08D58A4206D1AC428B
:1006500004D14FEA410CC0F84CC000E0C364D8F8A4
:1006600030C05FEA0C5C08D58A4206D1AC4204D1A6
:100670004FEA410CC0F850C000E00365D8F830C024
:100680005FEA8C4C08D58A4206D1AC4204D14FEACD
:10069000410CC0F854C000E00365D8F830C05FEAF0
:1006A0000C4C06D58A4204D1AC4202D14900816586
:1006B00000E08365D8F830108C074FF4004111D06A
:1006C000D8F8303003F00303012B0DD0D8F83030C8
:1006D00003F00303022B09D0D8F83030DB439B072B
:1006E00006D006E0836304E0826302E0816300E0F9
:1006F0008663D8F8303013F4403F12D0D8F8303049
:10070000C3F30143012B0ED0D8F83030C3F30143BB
:10071000022B0AD0D8F83030C3F30143032B06D0A4
:1007200006E0C76304E0C26302E0C16300E0C663A1
:10073000D8F8303013F4402F12D0D8F83030C3F34B
:100740008143012B0ED0D8F83030C3F38143022B04
:100750000AD0D8F83030C3F38143032B06D006E02B
:10076000076404E0026402E0016400E00664D8F873
:10077000303013F4401F12D0D8F83030C3F3015397
:10078000012B0ED0D8F83030C3F30153022B0AD01E
:10079000D8F83030C3F30153032B06D006E047648A
:1007A00004E0426402E0416400E04664D8F830307E
:1007B00013F4400F14D0D8F83030C3F38153012B19
:1007C00010D0D8F83020C2F38152022A0CD0D8F8C9
:1007D0003010C1F38151032900D18664BDE8F08750
:1007E0008764FBE78264F9E78164F7E70010024061
:1007F00000127A000000002000093D007047000050
:100800000CB50022019200922248016841F4803127
:1008100001604FF4A043016801F400310091019997
:10082000491C0191009911B901999942F3D10168CC
:10083000890302D50121009100E00092009901296D
:1008400026D1154A1221116041684160416841601A
:10085000416841F480614160416821F47C1141604C
:10086000416841F4E8114160016841F08071016024
:1008700001688901FCD5416821F0030141604168AC
:1008800041F0020141604168C1F381010229FAD1BE
:100890000CBD000000100240002002407047000024
:1008A00010B51648016841F47001016014480168F0
:1008B00041F0010101604168124A11404160016844
:1008C000114A11400160016821F4802101604168F2
:1008D00021F4FE014160C16A21F00F01C162016B88
:1008E0000A4A1140016300218160FFF789FF034933
:1008F0004FF000608039086010BD000088ED00E016
:10090000001002400CC07FF8FFFFF6FECCFC00FF99
:1009100010B50A4C0849204600F01EF8002809D0FE
:10092000204600F0AFF8401CC1B22046BDE81040A0
:1009300000F0ACB810BD0000050105000048004003
:10094000002904D0016841F001010160704701688D
:1009500021F001010160704730B50024C1F3072385
:10096000012505FA01F2012B0CD0022B0DD0836872
:100970001340090C8D40C06928400BB100B101241F
:10098000204630BD03681340F3E743681340F0E7A7
:1009900010B5C1F3072401238B40022C02D0032C95
:1009A00002D002E0001D00E008301AB101681943CE
:1009B000016010BD01689943016010BD30B597B06A
:1009C00004460D46206820F001002060606820F495
:1009D0004051A86808436060206841F20C61884378
:1009E000EA68696811432A69024311432160A068DB
:1009F00020F4407069690143A1606846FFF762FD19
:100A00001C48844201D10E990FE01B48844201D159
:100A10000F990AE01948844201D1109905E018485D
:100A2000844201D1119900E012992068000408D590
:100A30002A684900B1FBF2F0B1FBF2F302FB13119B
:100A400006E02A68B1FBF2F0B1FBF2F302FB1311EE
:100A50002A68B1EB520F00D3401C2168090405D568
:100A6000C0F342014FF6F07210400843A08117B066
:100A700030BD000000380140004400400048004004
:100A8000004C0040808CC0F308007047C1F308019F
:100A900001857047FEE7000030B589B00121C80428
:100AA000FFF7F4FC01218804FFF7FEFC4FF44060DF
:100AB000079002208DF8200003208DF821000024EB
:100AC0008DF822401A4D07A92846FFF79EFB072202
:100AD0000A212846FFF7D3FB07220B212846FFF700
:100AE000CEFB4FF4E130019006940C200590049465
:100AF000039402940F4C01A92046FFF75FFF0121E8
:100B00002046FFF71DFF01220B492046FFF740FF5B
:100B100027208DF8000001208DF803008DF80100DA
:100B20008DF802006846FFF763FC09B030BD000095
:100B300000080048004800400501050002E008C820
:100B4000121F08C1002AFAD170477047002001E047
:100B500001C1121F002AFBD170470000FFF700FC03
:100B6000FFF79AFF4FF4A060FFF774FCFFF77CFCDF
:100B7000094C80212046FFF792FBFFF7C3FB0A20B8
:100B8000FFF732FB80212046FFF78BFBFFF78CFB42
:100B90000A20FFF729FBECE700100048BC0B000817
:100BA00000000020300000003C0B0008EC0B0008A7
:100BB00030000020000400004C0B00080000000082
:100BC00001020304010203040607080901000200F0
:100BD0000400060008000A000C001000200040007D
:0C0BE00080000001000000000000000088
:040000050800019D51
:00000001FF
