:020000040800F2
:10000000300400209D010008AD020008A90200088C
:10001000AB020008E50100087D0B000800000000AD
:10002000000000000000000000000000A907000818
:10003000E701000800000000290300087D0900080E
:10004000B7010008B7010008B7010008B7010008B0
:10005000B7010008B7010008B7010008B7010008A0
:10006000B7010008B7010008B7010008B701000890
:10007000B7010008B7010008B7010008B701000880
:10008000B7010008B7010008B7010008B701000870
:10009000B7010008B7010008B7010008B701000860
:1000A000B7010008B7010008B7010008B701000850
:1000B000B7010008B7010008B7010008B701000840
:1000C000B7010008B7010008B7010008B701000830
:1000D000B7010008B7010008B7010008F1090008DE
:1000E000B7010008B7010008B7010008B701000810
:1000F000B7010008B7010008B7010008B701000800
:10010000000000000000000000000000B70100082F
:10011000B7010008B7010008B7010008B7010008DF
:10012000B7010008B7010008B7010008B7010008CF
:10013000B7010008B701000800000000000000003F
:10014000B7010008B7010008B7010008000000006F
:10015000000000000000000000000000000000009F
:100160000000000000000000B7010008B70100080F
:10017000B7010008000000000000000000000000BF
:1001800000000000B7010008DFF80CD000F018F8FC
:1001900000480047430C0008300400200648804710
:1001A00006480047FEE7FEE7FEE7FEE7FEE7FEE75C
:1001B000FEE7FEE7FEE7FEE7810900088901000887
:1001C000064C074D06E0E06840F0010394E80700A4
:1001D00098471034AC42F6D3FFF7DAFF640C0008FE
:1001E000840C0008FEE7704742F2283148434FF084
:1001F000E021486100238B61012008610869C20782
:1002000001D0C003FAD50B618B617047F0B50022B5
:100210000127032607FA02F30C681C409C422BD1ED
:100220000D79012D01D0022D13D18468550006FAF5
:1002300005FC24EA0C0484604C79AC4085682C43AE
:10024000846084889C43848084888B7993401C4399
:1002500084800568530006FA03F4A54305600D7910
:10026000D0F800C09D4045EA0C050560C568A5436F
:10027000CC799C402C43C460521C102ACAD3F0BDD8
:1002800010B54B07DB0E9A40C90800EB8100016AEC
:100290000F249C40A1430162016A1143016210BD19
:1002A0000185704781617047FEE7FEE770470000F7
:1002B00070B50F23C27801260178002A1ED0144A97
:1002C000126802F4E062C2F5E062120AC2F10404AC
:1002D000D3404578A54082781A402A43120101F1A3
:1002E000E02181F80024007800F01F018E404009D1
:1002F000800000F1E020C0F8006170BD01F01F0037
:1003000086404809800000F1E020C0F8806170BD9F
:100310000CED00E002490843024908607047000004
:100320000000FA050CED00E070470000054A0029C6
:1003300003D0516901435161704751698143516153
:100340007047000000100240054A002903D0D1691F
:100350000143D1617047D1698143D1617047000089
:1003600000100240054A002903D0916901439161C0
:10037000704791698143916170470000001002400D
:100380002DE9F0470021DFF82083D8F8042002F09F
:100390000C02C64E002A3AD0042A3AD0082A3AD093
:1003A0000660D8F8042002F0F0021209C04CA55CE7
:1003B000026822FA05F34360D8F8047007F4E06796
:1003C0003F0A14F807C023FA0CF78760D8F804C076
:1003D0000CF4605C4FEADC2C14F80C40E340C36082
:1003E000D8F82CC04FEA1C1CDFF8C4A20CF00F098F
:1003F0000AF1100A3AF819905FEACC6C24D5B9F1E9
:10040000000F21D0B1FBF9FCC0F810C01DE0066060
:10041000C7E70660C5E7D8F8041001F47011D8F8F2
:10042000042002F48032022303EB91414AB1D8F850
:100430002C2002F00F02521CB6FBF2F25143016075
:10044000AFE79C4A5143FAE70261D8F82CC04FEA63
:100450005C2C0CF00F093AF819905FEACC6C07D5C8
:10046000B9F1000F04D0B1FBF9FCC0F814C000E0F2
:100470004261D8F830C05FEACC6C01D4866100E0FC
:100480008261D8F830C05FEA8C6C01D4C66100E0AC
:10049000C261D8F830C05FEA4C6C01D4066200E05B
:1004A0000262D8F830C05FEACC5C08D58A4206D137
:1004B000AC4204D14FEA410CC0F824C000E04362D2
:1004C000D8F830C05FEACC4C08D58A4206D1AC429D
:1004D00004D14FEA410CC0F828C000E08362D8F88C
:1004E00030C05FEA8C5C08D58A4206D1AC4204D1A8
:1004F0004FEA410CC0F82CC000E0C362D8F830C00D
:100500005FEA4C5C08D58A4206D1AC4204D14FEA7E
:10051000410CC0F84CC000E0C364D8F830C05FEABA
:100520000C5C08D58A4206D1AC4204D14FEA410C9A
:10053000C0F850C000E00365D8F830C05FEA8C4CCA
:1005400008D58A4206D1AC4204D14FEA410CC0F82A
:1005500054C000E00365D8F830C05FEA0C4C06D503
:100560008A4204D1AC4202D14900816500E0836532
:10057000D8F830108C074FF4004111D0D8F8303043
:1005800003F00303012B0DD0D8F8303003F0030340
:10059000022B09D0D8F83030DB439B0706D006E0A9
:1005A000836304E0826302E0816300E08663D8F83D
:1005B000303013F4403F12D0D8F83030C3F3014349
:1005C000012B0ED0D8F83030C3F30143022B0AD0F0
:1005D000D8F83030C3F30143032B06D006E0C763DD
:1005E00004E0C26302E0C16300E0C663D8F83030C3
:1005F00013F4402F12D0D8F83030C3F38143012BCD
:100600000ED0D8F83030C3F38143022B0AD0D8F88B
:100610003030C3F38143032B06D006E0076404E0C7
:10062000026402E0016400E00664D8F8303013F49C
:10063000401F12D0D8F83030C3F30153012B0ED035
:10064000D8F83030C3F30153022B0AD0D8F8303039
:10065000C3F30153032B06D006E0476404E0426471
:1006600002E0416400E04664D8F8303013F4400FF3
:1006700014D0D8F83030C3F38153012B10D0D8F800
:100680003020C2F38152022A0CD0D8F83010C1F3C6
:100690008151032900D18664BDE8F0878764FBE7B8
:1006A0008264F9E78164F7E70010024000127A00E3
:1006B0000000002000093D0070B50546084C0821E7
:1006C0002046FFF7EDFD284600F070F8FF2000F00F
:1006D0006DF8054608212046FFF7E4FD284670BD69
:1006E00000100048002904D0018841F04001018039
:1006F0007047018821F0400101807047828822F410
:1007000070620A43828070470246002012890A42C2
:1007100000D00120704730B54A88B2F5827F1ED0E4
:10072000828822F470638A881A438280028802F4E5
:100730004153CA880C898D8922434C892C43CD8929
:100740002C4322430C884D882C4322431A430280B9
:10075000828B22F400628283098A018230BD028882
:1007600002F44153CA880C898D8922434C892C4359
:10077000CD892C4322430C8844F4827422431A43CB
:100780000280828822F470638A881A438280DFE7BD
:10079000007B7047828822F48052828082880A43DC
:1007A00082807047017370477047000070B505463E
:1007B0000024134E05E0641CE4B2C82C01D90020CB
:1007C00070BD02213046FFF79FFF0028F3D0294675
:1007D00035462846FFF7E6FF002405E0641CE4B236
:1007E000C82C01D9002070BD01212846FFF78CFFDD
:1007F0000028F3D02846BDE87040FFF7C9BF0000CD
:10080000003001400CB5002201920092224801689C
:1008100041F4803101604FF4A043016801F40031DC
:1008200000910199491C0191009911B901999942CE
:10083000F3D10168890302D50121009100E0009203
:100840000099012926D1154A1221116041684160A1
:1008500041684160416841F480614160416821F430
:100860007C114160416841F4E8114160016841F048
:100870008071016001688901FCD5416821F00301A4
:100880004160416841F0020141604168C1F381016A
:100890000229FAD10CBD00000010024000200240E5
:1008A0002DE9F04188B001214804FFF73FFD022502
:1008B0008DF81C50E020069003208DF81D000024C8
:1008C0008DF81E404FF0904606A93046FFF79EFC7B
:1008D000052211463046FFF7D3FC0522062130469B
:1008E000FFF7CEFC052207213046FFF7C9FC0121A6
:1008F0004805FFF71BFD01268DF81C6008200690B7
:10090000DFF8708006A94046FFF780FC01210F0345
:100910003846FFF727FDADF804404FF48270ADF87C
:1009200006004FF4E060ADF80800ADF80A50ADF8ED
:100930000C602802ADF80E001020ADF81000ADF8E4
:1009400012400D4C01A92046FFF7E5FE012120468B
:10095000FFF7C8FE39462046FFF71CFF012120465D
:10096000FFF7CCFE08214046FFF79CFC08B0BDE82D
:10097000F081000000100048003001407047000086
:1009800010B51648016841F470010160144801680F
:1009900041F0010101604168124A11404160016863
:1009A000114A11400160016821F480210160416811
:1009B00021F4FE014160C16A21F00F01C162016BA7
:1009C0000A4A1140016300218160FFF71BFF0349C0
:1009D0004FF000608039086010BD000088ED00E035
:1009E000001002400CC07FF8FFFFF6FECCFC00FFB9
:1009F00010B5094C0749204600F022F8002808D01D
:100A0000204600F0B3F8C1B22046BDE8104000F027
:100A1000B1B810BD0501050000480040014601487D
:100A200000F0A8B800480040002904D0016841F057
:100A3000010101607047016821F001010160704708
:100A400030B50024C1F30723012505FA01F2012B7B
:100A50000CD0022B0DD083681340090C8D40C06967
:100A600028400BB100B10124204630BD036813407B
:100A7000F3E743681340F0E710B5C1F307240123FF
:100A80008B40022C02D0032C02D002E0001D00E0BB
:100A900008301AB101681943016010BD016899431B
:100AA000016010BD30B597B004460D46206820F0B7
:100AB00001002060606820F44051A868084360602D
:100AC000206841F20C618843EA68696811432A6929
:100AD000024311432160A06820F44070696901431A
:100AE000A1606846FFF74CFC1C48844201D10E9976
:100AF0000FE01B48844201D10F990AE01948844253
:100B000001D1109905E01848844201D1119900E003
:100B100012992068000408D52A684900B1FBF2F058
:100B2000B1FBF2F302FB131106E02A68B1FBF2F00D
:100B3000B1FBF2F302FB13112A68B1EB520F00D3A1
:100B4000401C2168090405D5C0F342014FF6F0723C
:100B500010400843A08117B030BD000000380140AC
:100B60000044004000480040004C0040808CC0F32E
:100B700008007047C1F3080101857047FEE70000D7
:100B800030B589B00121C804FFF7D0FB01218804EA
:100B9000FFF7DAFB4FF44060079002208DF8200049
:100BA00003208DF8210000248DF822401A4D07A95A
:100BB0002846FFF72BFB07220A212846FFF760FB98
:100BC00007220B212846FFF75BFB4FF4E130019031
:100BD00006940C2005900494039402940F4C01A9F0
:100BE0002046FFF75FFF01212046FFF71DFF01228E
:100BF0000B492046FFF740FF27208DF80000012019
:100C00008DF803008DF801008DF802006846FFF7AB
:100C10004FFB09B030BD000000080048004800400C
:100C20000501050002E008C8121F08C1002AFAD118
:100C300070477047002001E001C1121F002AFBD15C
:100C40007047FFF72DFEFFF79BFF4FF4A060FFF703
:100C500061FB8F20FFF730FDFFF7E0FE0A20FFF772
:100C6000C3FAF6E7840C0008000000203000000002
:100C7000240C0008B40C0008300000200004000020
:100C8000340C000800000000010203040102030408
:100C900006070809010002000400060008000A0017
:100CA0000C00100020004000800000010000000047
:040CB0000000000040
:040000050800019D51
:00000001FF
